{
  "contractName": "Certification",
  "abi": [
    {
      "inputs": [],
      "stateMutability": "nonpayable",
      "type": "constructor"
    },
    {
      "anonymous": false,
      "inputs": [
        {
          "indexed": true,
          "internalType": "uint256",
          "name": "id",
          "type": "uint256"
        },
        {
          "indexed": false,
          "internalType": "string",
          "name": "studentName",
          "type": "string"
        }
      ],
      "name": "DiplomaIssued",
      "type": "event"
    },
    {
      "inputs": [],
      "name": "admin",
      "outputs": [
        {
          "internalType": "address",
          "name": "",
          "type": "address"
        }
      ],
      "stateMutability": "view",
      "type": "function",
      "constant": true
    },
    {
      "inputs": [
        {
          "internalType": "uint256",
          "name": "",
          "type": "uint256"
        }
      ],
      "name": "diplomas",
      "outputs": [
        {
          "internalType": "uint256",
          "name": "id",
          "type": "uint256"
        },
        {
          "internalType": "string",
          "name": "studentName",
          "type": "string"
        },
        {
          "internalType": "string",
          "name": "major",
          "type": "string"
        },
        {
          "internalType": "string",
          "name": "classification",
          "type": "string"
        },
        {
          "internalType": "uint256",
          "name": "issueDate",
          "type": "uint256"
        },
        {
          "internalType": "bool",
          "name": "isValid",
          "type": "bool"
        }
      ],
      "stateMutability": "view",
      "type": "function",
      "constant": true
    },
    {
      "inputs": [
        {
          "internalType": "uint256",
          "name": "_id",
          "type": "uint256"
        },
        {
          "internalType": "string",
          "name": "_name",
          "type": "string"
        },
        {
          "internalType": "string",
          "name": "_major",
          "type": "string"
        },
        {
          "internalType": "string",
          "name": "_class",
          "type": "string"
        }
      ],
      "name": "issueDiploma",
      "outputs": [],
      "stateMutability": "nonpayable",
      "type": "function"
    },
    {
      "inputs": [
        {
          "internalType": "uint256",
          "name": "_id",
          "type": "uint256"
        }
      ],
      "name": "verifyDiploma",
      "outputs": [
        {
          "internalType": "string",
          "name": "",
          "type": "string"
        },
        {
          "internalType": "string",
          "name": "",
          "type": "string"
        },
        {
          "internalType": "string",
          "name": "",
          "type": "string"
        },
        {
          "internalType": "uint256",
          "name": "",
          "type": "uint256"
        },
        {
          "internalType": "bool",
          "name": "",
          "type": "bool"
        }
      ],
      "stateMutability": "view",
      "type": "function",
      "constant": true
    },
    {
      "inputs": [
        {
          "internalType": "uint256",
          "name": "_id",
          "type": "uint256"
        }
      ],
      "name": "revokeDiploma",
      "outputs": [],
      "stateMutability": "nonpayable",
      "type": "function"
    }
  ],
  "bytecode": "0x608060405234801561001057600080fd5b50336000806101000a81548173ffffffffffffffffffffffffffffffffffffffff021916908373ffffffffffffffffffffffffffffffffffffffff160217905550610f50806100606000396000f3fe608060405234801561001057600080fd5b50600436106100575760003560e01c806335dfc1c31461005c57806342df8ec71461009157806384a421c1146100c5578063bccbedbd146100e1578063f851a440146100fd575b600080fd5b610076600480360381019061007191906109e6565b61011b565b60405161008896959493929190610ce5565b60405180910390f35b6100ab60048036038101906100a691906109e6565b6102fc565b6040516100bc959493929190610c1d565b60405180910390f35b6100df60048036038101906100da91906109e6565b610592565b005b6100fb60048036038101906100f69190610a0f565b6106ac565b005b6101056108a2565b6040516101129190610be0565b60405180910390f35b600160205280600052604060002060009150905080600001549080600101805461014490610e62565b80601f016020809104026020016040519081016040528092919081815260200182805461017090610e62565b80156101bd5780601f10610192576101008083540402835291602001916101bd565b820191906000526020600020905b8154815290600101906020018083116101a057829003601f168201915b5050505050908060020180546101d290610e62565b80601f01602080910402602001604051908101604052809291908181526020018280546101fe90610e62565b801561024b5780601f106102205761010080835404028352916020019161024b565b820191906000526020600020905b81548152906001019060200180831161022e57829003601f168201915b50505050509080600301805461026090610e62565b80601f016020809104026020016040519081016040528092919081815260200182805461028c90610e62565b80156102d95780601f106102ae576101008083540402835291602001916102d9565b820191906000526020600020905b8154815290600101906020018083116102bc57829003601f168201915b5050505050908060040154908060050160009054906101000a900460ff16905086565b606080606060008060006001600088815260200190815260200160002060000154141561035e576040517f08c379a000000000000000000000000000000000000000000000000000000000815260040161035590610cc5565b60405180910390fd5b6000600160008881526020019081526020016000206040518060c00160405290816000820154815260200160018201805461039890610e62565b80601f01602080910402602001604051908101604052809291908181526020018280546103c490610e62565b80156104115780601f106103e657610100808354040283529160200191610411565b820191906000526020600020905b8154815290600101906020018083116103f457829003601f168201915b5050505050815260200160028201805461042a90610e62565b80601f016020809104026020016040519081016040528092919081815260200182805461045690610e62565b80156104a35780601f10610478576101008083540402835291602001916104a3565b820191906000526020600020905b81548152906001019060200180831161048657829003601f168201915b505050505081526020016003820180546104bc90610e62565b80601f01602080910402602001604051908101604052809291908181526020018280546104e890610e62565b80156105355780601f1061050a57610100808354040283529160200191610535565b820191906000526020600020905b81548152906001019060200180831161051857829003601f168201915b50505050508152602001600482015481526020016005820160009054906101000a900460ff161515151581525050905080602001518160400151826060015183608001518460a00151955095509550955095505091939590929450565b60008054906101000a900473ffffffffffffffffffffffffffffffffffffffff1673ffffffffffffffffffffffffffffffffffffffff163373ffffffffffffffffffffffffffffffffffffffff1614610620576040517f08c379a000000000000000000000000000000000000000000000000000000000815260040161061790610ca5565b60405180910390fd5b60006001600083815260200190815260200160002060000154141561067a576040517f08c379a000000000000000000000000000000000000000000000000000000000815260040161067190610cc5565b60405180910390fd5b60006001600083815260200190815260200160002060050160006101000a81548160ff02191690831515021790555050565b60008054906101000a900473ffffffffffffffffffffffffffffffffffffffff1673ffffffffffffffffffffffffffffffffffffffff163373ffffffffffffffffffffffffffffffffffffffff161461073a576040517f08c379a000000000000000000000000000000000000000000000000000000000815260040161073190610ca5565b60405180910390fd5b6000600160008681526020019081526020016000206000015414610793576040517f08c379a000000000000000000000000000000000000000000000000000000000815260040161078a90610c85565b60405180910390fd5b6040518060c0016040528085815260200184815260200183815260200182815260200142815260200160011515815250600160008681526020019081526020016000206000820151816000015560208201518160010190805190602001906107fc9291906108c6565b5060408201518160020190805190602001906108199291906108c6565b5060608201518160030190805190602001906108369291906108c6565b506080820151816004015560a08201518160050160006101000a81548160ff021916908315150217905550905050837f4f49ecc89c240e9f0e220ea41d1a5a01dab616d4d34b811029d2f5701db2aa6b846040516108949190610bfb565b60405180910390a250505050565b60008054906101000a900473ffffffffffffffffffffffffffffffffffffffff1681565b8280546108d290610e62565b90600052602060002090601f0160209004810192826108f4576000855561093b565b82601f1061090d57805160ff191683800117855561093b565b8280016001018555821561093b579182015b8281111561093a57825182559160200191906001019061091f565b5b509050610948919061094c565b5090565b5b8082111561096557600081600090555060010161094d565b5090565b600061097c61097784610d8c565b610d5b565b90508281526020810184848401111561099457600080fd5b61099f848285610e20565b509392505050565b600082601f8301126109b857600080fd5b81356109c8848260208601610969565b91505092915050565b6000813590506109e081610f03565b92915050565b6000602082840312156109f857600080fd5b6000610a06848285016109d1565b91505092915050565b60008060008060808587031215610a2557600080fd5b6000610a33878288016109d1565b945050602085013567ffffffffffffffff811115610a5057600080fd5b610a5c878288016109a7565b935050604085013567ffffffffffffffff811115610a7957600080fd5b610a85878288016109a7565b925050606085013567ffffffffffffffff811115610aa257600080fd5b610aae878288016109a7565b91505092959194509250565b610ac381610dd8565b82525050565b610ad281610dea565b82525050565b6000610ae382610dbc565b610aed8185610dc7565b9350610afd818560208601610e2f565b610b0681610ef2565b840191505092915050565b6000610b1e601283610dc7565b91507f4944206e617920646120746f6e207461692100000000000000000000000000006000830152602082019050919050565b6000610b5e601f83610dc7565b91507f42616e206b686f6e6720636f20717579656e20284f6e6c792041646d696e29006000830152602082019050919050565b6000610b9e601783610dc7565b91507f42616e6720636170206b686f6e6720746f6e20746169210000000000000000006000830152602082019050919050565b610bda81610e16565b82525050565b6000602082019050610bf56000830184610aba565b92915050565b60006020820190508181036000830152610c158184610ad8565b905092915050565b600060a0820190508181036000830152610c378188610ad8565b90508181036020830152610c4b8187610ad8565b90508181036040830152610c5f8186610ad8565b9050610c6e6060830185610bd1565b610c7b6080830184610ac9565b9695505050505050565b60006020820190508181036000830152610c9e81610b11565b9050919050565b60006020820190508181036000830152610cbe81610b51565b9050919050565b60006020820190508181036000830152610cde81610b91565b9050919050565b600060c082019050610cfa6000830189610bd1565b8181036020830152610d0c8188610ad8565b90508181036040830152610d208187610ad8565b90508181036060830152610d348186610ad8565b9050610d436080830185610bd1565b610d5060a0830184610ac9565b979650505050505050565b6000604051905081810181811067ffffffffffffffff82111715610d8257610d81610ec3565b5b8060405250919050565b600067ffffffffffffffff821115610da757610da6610ec3565b5b601f19601f8301169050602081019050919050565b600081519050919050565b600082825260208201905092915050565b6000610de382610df6565b9050919050565b60008115159050919050565b600073ffffffffffffffffffffffffffffffffffffffff82169050919050565b6000819050919050565b82818337600083830152505050565b60005b83811015610e4d578082015181840152602081019050610e32565b83811115610e5c576000848401525b50505050565b60006002820490506001821680610e7a57607f821691505b60208210811415610e8e57610e8d610e94565b5b50919050565b7f4e487b7100000000000000000000000000000000000000000000000000000000600052602260045260246000fd5b7f4e487b7100000000000000000000000000000000000000000000000000000000600052604160045260246000fd5b6000601f19601f8301169050919050565b610f0c81610e16565b8114610f1757600080fd5b5056fea2646970667358221220585f75321bbce43d3d581a6f585951d00162b7658f39456f8391ccb0830e695664736f6c63430008000033",
  "immutableReferences": {},
  "source": "// SPDX-License-Identifier: MIT\r\npragma solidity ^0.8.0;\r\n\r\ncontract Certification {\r\n    // Thông tin người quản trị (Trường học)\r\n    address public admin;\r\n\r\n    constructor() {\r\n        admin = msg.sender; // Người deploy contract sẽ là Admin\r\n    }\r\n\r\n    // Cấu trúc bằng cấp\r\n    struct Diploma {\r\n        uint256 id;\r\n        string studentName;\r\n        string major;       // Ngành học\r\n        string classification; // Xếp loại\r\n        uint256 issueDate;\r\n        bool isValid;       // Trạng thái hiệu lực\r\n    }\r\n\r\n    // Lưu trữ: Map từ ID -> Thông tin bằng\r\n    mapping(uint256 => Diploma) public diplomas;\r\n\r\n    // Sự kiện để Frontend bắt được khi cấp bằng xong\r\n    event DiplomaIssued(uint256 indexed id, string studentName);\r\n\r\n    // Modifier: Chỉ Admin mới được gọi hàm này\r\n    modifier onlyAdmin() {\r\n        require(msg.sender == admin, \"Ban khong co quyen (Only Admin)\");\r\n        _;\r\n    }\r\n\r\n    // 1. Chức năng Cấp bằng (Chỉ Admin)\r\n    function issueDiploma(\r\n        uint256 _id, \r\n        string memory _name, \r\n        string memory _major, \r\n        string memory _class\r\n    ) public onlyAdmin {\r\n        require(diplomas[_id].id == 0, \"ID nay da ton tai!\"); // Chặn trùng ID\r\n\r\n        diplomas[_id] = Diploma(_id, _name, _major, _class, block.timestamp, true);\r\n        emit DiplomaIssued(_id, _name);\r\n    }\r\n\r\n    // 2. Chức năng Tra cứu (Ai cũng dùng được)\r\n    function verifyDiploma(uint256 _id) public view returns (string memory, string memory, string memory, uint256, bool) {\r\n        require(diplomas[_id].id != 0, \"Bang cap khong ton tai!\");\r\n        Diploma memory d = diplomas[_id];\r\n        return (d.studentName, d.major, d.classification, d.issueDate, d.isValid);\r\n    }\r\n\r\n    // 3. Chức năng Thu hồi bằng (Chỉ Admin)\r\n    function revokeDiploma(uint256 _id) public onlyAdmin {\r\n        require(diplomas[_id].id != 0, \"Bang cap khong ton tai!\");\r\n        diplomas[_id].isValid = false; // Vô hiệu hóa bằng\r\n    }\r\n}",
  "sourcePath": "E:\\myself\\BlockChain\\QuanLyVanBang\\contracts\\Certification.sol",
  "compiler": {
    "name": "solc",
    "version": "0.8.0+commit.c7dfd78e.Emscripten.clang"
  },
  "schemaVersion": "3.4.16",
  "updatedAt": "2026-02-21T17:21:26.867Z",
  "networkType": "ethereum",
  "devdoc": {
    "kind": "dev",
    "methods": {},
    "version": 1
  },
  "userdoc": {
    "kind": "user",
    "methods": {},
    "version": 1
  }
}